{
  "address": "0xe25235966f978796bcf4eA6aB2575f1C20c34Efd",
  "abi": [
    {
      "inputs": [
        {
          "internalType": "string",
          "name": "name",
          "type": "string"
        },
        {
          "internalType": "string",
          "name": "symbol",
          "type": "string"
        },
        {
          "internalType": "address",
          "name": "_superloyal",
          "type": "address"
        },
        {
          "internalType": "address",
          "name": "_stakedToken",
          "type": "address"
        },
        {
          "internalType": "uint256",
          "name": "_requiredBalance",
          "type": "uint256"
        }
      ],
      "stateMutability": "nonpayable",
      "type": "constructor"
    },
    {
      "anonymous": false,
      "inputs": [
        {
          "indexed": true,
          "internalType": "address",
          "name": "owner",
          "type": "address"
        },
        {
          "indexed": true,
          "internalType": "address",
          "name": "spender",
          "type": "address"
        },
        {
          "indexed": false,
          "internalType": "uint256",
          "name": "value",
          "type": "uint256"
        }
      ],
      "name": "Approval",
      "type": "event"
    },
    {
      "anonymous": false,
      "inputs": [
        {
          "indexed": true,
          "internalType": "address",
          "name": "previousOwner",
          "type": "address"
        },
        {
          "indexed": true,
          "internalType": "address",
          "name": "newOwner",
          "type": "address"
        }
      ],
      "name": "OwnershipTransferred",
      "type": "event"
    },
    {
      "anonymous": false,
      "inputs": [
        {
          "indexed": true,
          "internalType": "bytes32",
          "name": "role",
          "type": "bytes32"
        },
        {
          "indexed": true,
          "internalType": "bytes32",
          "name": "previousAdminRole",
          "type": "bytes32"
        },
        {
          "indexed": true,
          "internalType": "bytes32",
          "name": "newAdminRole",
          "type": "bytes32"
        }
      ],
      "name": "RoleAdminChanged",
      "type": "event"
    },
    {
      "anonymous": false,
      "inputs": [
        {
          "indexed": true,
          "internalType": "bytes32",
          "name": "role",
          "type": "bytes32"
        },
        {
          "indexed": true,
          "internalType": "address",
          "name": "account",
          "type": "address"
        },
        {
          "indexed": true,
          "internalType": "address",
          "name": "sender",
          "type": "address"
        }
      ],
      "name": "RoleGranted",
      "type": "event"
    },
    {
      "anonymous": false,
      "inputs": [
        {
          "indexed": true,
          "internalType": "bytes32",
          "name": "role",
          "type": "bytes32"
        },
        {
          "indexed": true,
          "internalType": "address",
          "name": "account",
          "type": "address"
        },
        {
          "indexed": true,
          "internalType": "address",
          "name": "sender",
          "type": "address"
        }
      ],
      "name": "RoleRevoked",
      "type": "event"
    },
    {
      "anonymous": false,
      "inputs": [
        {
          "indexed": true,
          "internalType": "address",
          "name": "from",
          "type": "address"
        },
        {
          "indexed": true,
          "internalType": "address",
          "name": "to",
          "type": "address"
        },
        {
          "indexed": false,
          "internalType": "uint256",
          "name": "value",
          "type": "uint256"
        }
      ],
      "name": "Transfer",
      "type": "event"
    },
    {
      "inputs": [],
      "name": "DEFAULT_ADMIN_ROLE",
      "outputs": [
        {
          "internalType": "bytes32",
          "name": "",
          "type": "bytes32"
        }
      ],
      "stateMutability": "view",
      "type": "function"
    },
    {
      "inputs": [],
      "name": "MINTER_ROLE",
      "outputs": [
        {
          "internalType": "bytes32",
          "name": "",
          "type": "bytes32"
        }
      ],
      "stateMutability": "view",
      "type": "function"
    },
    {
      "inputs": [
        {
          "internalType": "address",
          "name": "_newMinter",
          "type": "address"
        }
      ],
      "name": "addMinter",
      "outputs": [],
      "stateMutability": "nonpayable",
      "type": "function"
    },
    {
      "inputs": [
        {
          "internalType": "address",
          "name": "owner",
          "type": "address"
        },
        {
          "internalType": "address",
          "name": "spender",
          "type": "address"
        }
      ],
      "name": "allowance",
      "outputs": [
        {
          "internalType": "uint256",
          "name": "",
          "type": "uint256"
        }
      ],
      "stateMutability": "view",
      "type": "function"
    },
    {
      "inputs": [
        {
          "internalType": "address",
          "name": "spender",
          "type": "address"
        },
        {
          "internalType": "uint256",
          "name": "amount",
          "type": "uint256"
        }
      ],
      "name": "approve",
      "outputs": [
        {
          "internalType": "bool",
          "name": "",
          "type": "bool"
        }
      ],
      "stateMutability": "nonpayable",
      "type": "function"
    },
    {
      "inputs": [
        {
          "internalType": "address",
          "name": "account",
          "type": "address"
        }
      ],
      "name": "balanceOf",
      "outputs": [
        {
          "internalType": "uint256",
          "name": "",
          "type": "uint256"
        }
      ],
      "stateMutability": "view",
      "type": "function"
    },
    {
      "inputs": [
        {
          "internalType": "uint256",
          "name": "amount",
          "type": "uint256"
        }
      ],
      "name": "burn",
      "outputs": [],
      "stateMutability": "nonpayable",
      "type": "function"
    },
    {
      "inputs": [],
      "name": "canMint",
      "outputs": [
        {
          "internalType": "bool",
          "name": "",
          "type": "bool"
        }
      ],
      "stateMutability": "view",
      "type": "function"
    },
    {
      "inputs": [],
      "name": "decimals",
      "outputs": [
        {
          "internalType": "uint8",
          "name": "",
          "type": "uint8"
        }
      ],
      "stateMutability": "view",
      "type": "function"
    },
    {
      "inputs": [
        {
          "internalType": "address",
          "name": "spender",
          "type": "address"
        },
        {
          "internalType": "uint256",
          "name": "subtractedValue",
          "type": "uint256"
        }
      ],
      "name": "decreaseAllowance",
      "outputs": [
        {
          "internalType": "bool",
          "name": "",
          "type": "bool"
        }
      ],
      "stateMutability": "nonpayable",
      "type": "function"
    },
    {
      "inputs": [
        {
          "internalType": "bytes32",
          "name": "role",
          "type": "bytes32"
        }
      ],
      "name": "getRoleAdmin",
      "outputs": [
        {
          "internalType": "bytes32",
          "name": "",
          "type": "bytes32"
        }
      ],
      "stateMutability": "view",
      "type": "function"
    },
    {
      "inputs": [
        {
          "internalType": "bytes32",
          "name": "role",
          "type": "bytes32"
        },
        {
          "internalType": "address",
          "name": "account",
          "type": "address"
        }
      ],
      "name": "grantRole",
      "outputs": [],
      "stateMutability": "nonpayable",
      "type": "function"
    },
    {
      "inputs": [
        {
          "internalType": "bytes32",
          "name": "role",
          "type": "bytes32"
        },
        {
          "internalType": "address",
          "name": "account",
          "type": "address"
        }
      ],
      "name": "hasRole",
      "outputs": [
        {
          "internalType": "bool",
          "name": "",
          "type": "bool"
        }
      ],
      "stateMutability": "view",
      "type": "function"
    },
    {
      "inputs": [
        {
          "internalType": "address",
          "name": "spender",
          "type": "address"
        },
        {
          "internalType": "uint256",
          "name": "addedValue",
          "type": "uint256"
        }
      ],
      "name": "increaseAllowance",
      "outputs": [
        {
          "internalType": "bool",
          "name": "",
          "type": "bool"
        }
      ],
      "stateMutability": "nonpayable",
      "type": "function"
    },
    {
      "inputs": [
        {
          "internalType": "address",
          "name": "recipient",
          "type": "address"
        },
        {
          "internalType": "uint256",
          "name": "amount",
          "type": "uint256"
        }
      ],
      "name": "mint",
      "outputs": [],
      "stateMutability": "nonpayable",
      "type": "function"
    },
    {
      "inputs": [],
      "name": "name",
      "outputs": [
        {
          "internalType": "string",
          "name": "",
          "type": "string"
        }
      ],
      "stateMutability": "view",
      "type": "function"
    },
    {
      "inputs": [],
      "name": "owner",
      "outputs": [
        {
          "internalType": "address",
          "name": "",
          "type": "address"
        }
      ],
      "stateMutability": "view",
      "type": "function"
    },
    {
      "inputs": [
        {
          "internalType": "address",
          "name": "_minter",
          "type": "address"
        }
      ],
      "name": "removeMinter",
      "outputs": [],
      "stateMutability": "nonpayable",
      "type": "function"
    },
    {
      "inputs": [],
      "name": "renounceOwnership",
      "outputs": [],
      "stateMutability": "nonpayable",
      "type": "function"
    },
    {
      "inputs": [
        {
          "internalType": "bytes32",
          "name": "role",
          "type": "bytes32"
        },
        {
          "internalType": "address",
          "name": "account",
          "type": "address"
        }
      ],
      "name": "renounceRole",
      "outputs": [],
      "stateMutability": "nonpayable",
      "type": "function"
    },
    {
      "inputs": [],
      "name": "requiredBalance",
      "outputs": [
        {
          "internalType": "uint256",
          "name": "",
          "type": "uint256"
        }
      ],
      "stateMutability": "view",
      "type": "function"
    },
    {
      "inputs": [
        {
          "internalType": "bytes32",
          "name": "role",
          "type": "bytes32"
        },
        {
          "internalType": "address",
          "name": "account",
          "type": "address"
        }
      ],
      "name": "revokeRole",
      "outputs": [],
      "stateMutability": "nonpayable",
      "type": "function"
    },
    {
      "inputs": [
        {
          "internalType": "uint256",
          "name": "_requiredBalance",
          "type": "uint256"
        }
      ],
      "name": "setRequiredBalance",
      "outputs": [],
      "stateMutability": "nonpayable",
      "type": "function"
    },
    {
      "inputs": [
        {
          "internalType": "bytes4",
          "name": "interfaceId",
          "type": "bytes4"
        }
      ],
      "name": "supportsInterface",
      "outputs": [
        {
          "internalType": "bool",
          "name": "",
          "type": "bool"
        }
      ],
      "stateMutability": "view",
      "type": "function"
    },
    {
      "inputs": [],
      "name": "symbol",
      "outputs": [
        {
          "internalType": "string",
          "name": "",
          "type": "string"
        }
      ],
      "stateMutability": "view",
      "type": "function"
    },
    {
      "inputs": [],
      "name": "totalSupply",
      "outputs": [
        {
          "internalType": "uint256",
          "name": "",
          "type": "uint256"
        }
      ],
      "stateMutability": "view",
      "type": "function"
    },
    {
      "inputs": [
        {
          "internalType": "address",
          "name": "recipient",
          "type": "address"
        },
        {
          "internalType": "uint256",
          "name": "amount",
          "type": "uint256"
        }
      ],
      "name": "transfer",
      "outputs": [
        {
          "internalType": "bool",
          "name": "",
          "type": "bool"
        }
      ],
      "stateMutability": "nonpayable",
      "type": "function"
    },
    {
      "inputs": [
        {
          "internalType": "address",
          "name": "sender",
          "type": "address"
        },
        {
          "internalType": "address",
          "name": "recipient",
          "type": "address"
        },
        {
          "internalType": "uint256",
          "name": "amount",
          "type": "uint256"
        }
      ],
      "name": "transferFrom",
      "outputs": [
        {
          "internalType": "bool",
          "name": "",
          "type": "bool"
        }
      ],
      "stateMutability": "nonpayable",
      "type": "function"
    },
    {
      "inputs": [
        {
          "internalType": "address",
          "name": "newOwner",
          "type": "address"
        }
      ],
      "name": "transferOwnership",
      "outputs": [],
      "stateMutability": "nonpayable",
      "type": "function"
    },
    {
      "inputs": [
        {
          "internalType": "uint256",
          "name": "amount",
          "type": "uint256"
        }
      ],
      "name": "withdrawStake",
      "outputs": [],
      "stateMutability": "nonpayable",
      "type": "function"
    }
  ],
  "transactionHash": "0xa0d5362739799dbd9b21d1c7867f8fa145210d215fcc536e2084e19828290f07",
  "args": [
    "Test Brand Token",
    "BPT",
    "0xB2C0ab2E4f224031f069cCf20Aef9f06f32D177A",
    "0xEd23714927240Fb0d4B04D2dE3D1f8A05aBf5b36",
    "1000000000000000000000000"
  ],
  "numDeployments": 1,
  "solcInputHash": "2bf76e912c29f9ef7963c99f8f424ec9",
  "bytecode": "0x60c06040523480156200001157600080fd5b50604051620043d5380380620043d5833981810160405281019062000037919062000a3c565b8484816003908051906020019062000051929190620008ec565b5080600490805190602001906200006a929190620008ec565b5050506200008d620000816200013360201b60201c565b6200013b60201b60201c565b806007819055508273ffffffffffffffffffffffffffffffffffffffff1660a08173ffffffffffffffffffffffffffffffffffffffff1660601b815250508173ffffffffffffffffffffffffffffffffffffffff1660808173ffffffffffffffffffffffffffffffffffffffff1660601b81525050620001176000801b336200020160201b60201c565b62000128336200021760201b60201c565b505050505062001077565b600033905090565b6000600560009054906101000a900473ffffffffffffffffffffffffffffffffffffffff16905081600560006101000a81548173ffffffffffffffffffffffffffffffffffffffff021916908373ffffffffffffffffffffffffffffffffffffffff1602179055508173ffffffffffffffffffffffffffffffffffffffff168173ffffffffffffffffffffffffffffffffffffffff167f8be0079c531659141344cd1fd0a4f28419497f9722a3daafe3b4186f6b6457e060405160405180910390a35050565b620002138282620002db60201b60201c565b5050565b620002276200013360201b60201c565b73ffffffffffffffffffffffffffffffffffffffff166200024d620003cd60201b60201c565b73ffffffffffffffffffffffffffffffffffffffff1614620002a6576040517f08c379a00000000000000000000000000000000000000000000000000000000081526004016200029d9062000c8c565b60405180910390fd5b620002d87f9f2df0fed2c77648de5860a4cc508cd0818c85b8b8a1ab4ceeef8d981c8956a682620003f760201b60201c565b50565b620002ed82826200044560201b60201c565b620003c95760016006600084815260200190815260200160002060000160008373ffffffffffffffffffffffffffffffffffffffff1673ffffffffffffffffffffffffffffffffffffffff16815260200190815260200160002060006101000a81548160ff0219169083151502179055506200036e6200013360201b60201c565b73ffffffffffffffffffffffffffffffffffffffff168173ffffffffffffffffffffffffffffffffffffffff16837f2f8788117e7eff1d82e926ec794901d17c78024a50270940304540a733656f0d60405160405180910390a45b5050565b6000600560009054906101000a900473ffffffffffffffffffffffffffffffffffffffff16905090565b6200040882620004b060201b60201c565b62000429816200041d6200013360201b60201c565b620004d060201b60201c565b6200044083836200059460201b620013b21760201c565b505050565b60006006600084815260200190815260200160002060000160008373ffffffffffffffffffffffffffffffffffffffff1673ffffffffffffffffffffffffffffffffffffffff16815260200190815260200160002060009054906101000a900460ff16905092915050565b600060066000838152602001908152602001600020600101549050919050565b620004e282826200044560201b60201c565b6200059057620005158173ffffffffffffffffffffffffffffffffffffffff166014620005dd60201b620013db1760201c565b620005308360001c6020620005dd60201b620013db1760201c565b6040516020016200054392919062000c04565b6040516020818303038152906040526040517f08c379a000000000000000000000000000000000000000000000000000000000815260040162000587919062000c46565b60405180910390fd5b5050565b620005a582620004b060201b60201c565b620005c681620005ba6200013360201b60201c565b620004d060201b60201c565b620005d88383620002db60201b60201c565b505050565b606060006002836002620005f2919062000d91565b620005fe919062000d34565b67ffffffffffffffff8111156200063e577f4e487b7100000000000000000000000000000000000000000000000000000000600052604160045260246000fd5b6040519080825280601f01601f191660200182016040528015620006715781602001600182028036833780820191505090505b5090507f300000000000000000000000000000000000000000000000000000000000000081600081518110620006d0577f4e487b7100000000000000000000000000000000000000000000000000000000600052603260045260246000fd5b60200101907effffffffffffffffffffffffffffffffffffffffffffffffffffffffffffff1916908160001a9053507f7800000000000000000000000000000000000000000000000000000000000000816001815181106200075b577f4e487b7100000000000000000000000000000000000000000000000000000000600052603260045260246000fd5b60200101907effffffffffffffffffffffffffffffffffffffffffffffffffffffffffffff1916908160001a905350600060018460026200079d919062000d91565b620007a9919062000d34565b90505b60018111156200089b577f3031323334353637383961626364656600000000000000000000000000000000600f86166010811062000813577f4e487b7100000000000000000000000000000000000000000000000000000000600052603260045260246000fd5b1a60f81b82828151811062000851577f4e487b7100000000000000000000000000000000000000000000000000000000600052603260045260246000fd5b60200101907effffffffffffffffffffffffffffffffffffffffffffffffffffffffffffff1916908160001a905350600485901c945080620008939062000e66565b9050620007ac565b5060008414620008e2576040517f08c379a0000000000000000000000000000000000000000000000000000000008152600401620008d99062000c6a565b60405180910390fd5b8091505092915050565b828054620008fa9062000e95565b90600052602060002090601f0160209004810192826200091e57600085556200096a565b82601f106200093957805160ff19168380011785556200096a565b828001600101855582156200096a579182015b82811115620009695782518255916020019190600101906200094c565b5b5090506200097991906200097d565b5090565b5b80821115620009985760008160009055506001016200097e565b5090565b6000620009b3620009ad8462000cd7565b62000cae565b905082815260208101848484011115620009cc57600080fd5b620009d984828562000e30565b509392505050565b600081519050620009f28162001043565b92915050565b600082601f83011262000a0a57600080fd5b815162000a1c8482602086016200099c565b91505092915050565b60008151905062000a36816200105d565b92915050565b600080600080600060a0868803121562000a5557600080fd5b600086015167ffffffffffffffff81111562000a7057600080fd5b62000a7e88828901620009f8565b955050602086015167ffffffffffffffff81111562000a9c57600080fd5b62000aaa88828901620009f8565b945050604062000abd88828901620009e1565b935050606062000ad088828901620009e1565b925050608062000ae38882890162000a25565b9150509295509295909350565b600062000afd8262000d0d565b62000b09818562000d18565b935062000b1b81856020860162000e30565b62000b268162000f8e565b840191505092915050565b600062000b3e8262000d0d565b62000b4a818562000d29565b935062000b5c81856020860162000e30565b80840191505092915050565b600062000b7760208362000d18565b915062000b848262000f9f565b602082019050919050565b600062000b9e60208362000d18565b915062000bab8262000fc8565b602082019050919050565b600062000bc560178362000d29565b915062000bd28262000ff1565b601782019050919050565b600062000bec60118362000d29565b915062000bf9826200101a565b601182019050919050565b600062000c118262000bb6565b915062000c1f828562000b31565b915062000c2c8262000bdd565b915062000c3a828462000b31565b91508190509392505050565b6000602082019050818103600083015262000c62818462000af0565b905092915050565b6000602082019050818103600083015262000c858162000b68565b9050919050565b6000602082019050818103600083015262000ca78162000b8f565b9050919050565b600062000cba62000ccd565b905062000cc8828262000ecb565b919050565b6000604051905090565b600067ffffffffffffffff82111562000cf55762000cf462000f5f565b5b62000d008262000f8e565b9050602081019050919050565b600081519050919050565b600082825260208201905092915050565b600081905092915050565b600062000d418262000e26565b915062000d4e8362000e26565b9250827fffffffffffffffffffffffffffffffffffffffffffffffffffffffffffffffff0382111562000d865762000d8562000f01565b5b828201905092915050565b600062000d9e8262000e26565b915062000dab8362000e26565b9250817fffffffffffffffffffffffffffffffffffffffffffffffffffffffffffffffff048311821515161562000de75762000de662000f01565b5b828202905092915050565b600062000dff8262000e06565b9050919050565b600073ffffffffffffffffffffffffffffffffffffffff82169050919050565b6000819050919050565b60005b8381101562000e5057808201518184015260208101905062000e33565b8381111562000e60576000848401525b50505050565b600062000e738262000e26565b9150600082141562000e8a5762000e8962000f01565b5b600182039050919050565b6000600282049050600182168062000eae57607f821691505b6020821081141562000ec55762000ec462000f30565b5b50919050565b62000ed68262000f8e565b810181811067ffffffffffffffff8211171562000ef85762000ef762000f5f565b5b80604052505050565b7f4e487b7100000000000000000000000000000000000000000000000000000000600052601160045260246000fd5b7f4e487b7100000000000000000000000000000000000000000000000000000000600052602260045260246000fd5b7f4e487b7100000000000000000000000000000000000000000000000000000000600052604160045260246000fd5b6000601f19601f8301169050919050565b7f537472696e67733a20686578206c656e67746820696e73756666696369656e74600082015250565b7f4f776e61626c653a2063616c6c6572206973206e6f7420746865206f776e6572600082015250565b7f416363657373436f6e74726f6c3a206163636f756e7420000000000000000000600082015250565b7f206973206d697373696e6720726f6c6520000000000000000000000000000000600082015250565b6200104e8162000df2565b81146200105a57600080fd5b50565b620010688162000e26565b81146200107457600080fd5b50565b60805160601c60a05160601c613324620010b16000396000610ceb0152600081816108bf01528181610be6015261113801526133246000f3fe608060405234801561001057600080fd5b50600436106101da5760003560e01c80636f6e9f1e11610104578063a217fddf116100a2578063d539139311610071578063d539139314610569578063d547741f14610587578063dd62ed3e146105a3578063f2fde38b146105d3576101da565b8063a217fddf146104cd578063a457c2d7146104eb578063a9059cbb1461051b578063beb9716d1461054b576101da565b80638da5cb5b116100de5780638da5cb5b1461044557806391d148541461046357806395d89b4114610493578063983b2d56146104b1576101da565b80636f6e9f1e146103ef57806370a082311461040b578063715018a61461043b576101da565b806325d5971f1161017c57806336568abe1161014b57806336568abe1461036b578063395093511461038757806340c10f19146103b757806342966c68146103d3576101da565b806325d5971f146102f95780632f2ff15d146103155780633092afd514610331578063313ce5671461034d576101da565b8063095ea7b3116101b8578063095ea7b31461024b57806318160ddd1461027b57806323b872dd14610299578063248a9ca3146102c9576101da565b806301ffc9a7146101df57806306fdde031461020f57806308560ace1461022d575b600080fd5b6101f960048036038101906101f4919061241f565b6105ef565b6040516102069190612866565b60405180910390f35b610217610669565b604051610224919061289c565b60405180910390f35b6102356106fb565b6040516102429190612ade565b60405180910390f35b61026560048036038101906102609190612355565b610701565b6040516102729190612866565b60405180910390f35b61028361071f565b6040516102909190612ade565b60405180910390f35b6102b360048036038101906102ae9190612306565b610729565b6040516102c09190612866565b60405180910390f35b6102e360048036038101906102de91906123ba565b610821565b6040516102f09190612881565b60405180910390f35b610313600480360381019061030e9190612448565b610841565b005b61032f600480360381019061032a91906123e3565b61096e565b005b61034b600480360381019061034691906122a1565b610997565b005b610355610a40565b6040516103629190612af9565b60405180910390f35b610385600480360381019061038091906123e3565b610a49565b005b6103a1600480360381019061039c9190612355565b610acc565b6040516103ae9190612866565b60405180910390f35b6103d160048036038101906103cc9190612355565b610b78565b005b6103ed60048036038101906103e89190612448565b610cdc565b005b61040960048036038101906104049190612448565b610ce9565b005b610425600480360381019061042091906122a1565b610d81565b6040516104329190612ade565b60405180910390f35b610443610dc9565b005b61044d610e51565b60405161045a9190612822565b60405180910390f35b61047d600480360381019061047891906123e3565b610e7b565b60405161048a9190612866565b60405180910390f35b61049b610ee6565b6040516104a8919061289c565b60405180910390f35b6104cb60048036038101906104c691906122a1565b610f78565b005b6104d5611021565b6040516104e29190612881565b60405180910390f35b61050560048036038101906105009190612355565b611028565b6040516105129190612866565b60405180910390f35b61053560048036038101906105309190612355565b611113565b6040516105429190612866565b60405180910390f35b610553611131565b6040516105609190612866565b60405180910390f35b6105716111e6565b60405161057e9190612881565b60405180910390f35b6105a1600480360381019061059c91906123e3565b61120a565b005b6105bd60048036038101906105b891906122ca565b611233565b6040516105ca9190612ade565b60405180910390f35b6105ed60048036038101906105e891906122a1565b6112ba565b005b60007f7965db0b000000000000000000000000000000000000000000000000000000007bffffffffffffffffffffffffffffffffffffffffffffffffffffffff1916827bffffffffffffffffffffffffffffffffffffffffffffffffffffffff191614806106625750610661826116d5565b5b9050919050565b60606003805461067890612d07565b80601f01602080910402602001604051908101604052809291908181526020018280546106a490612d07565b80156106f15780601f106106c6576101008083540402835291602001916106f1565b820191906000526020600020905b8154815290600101906020018083116106d457829003601f168201915b5050505050905090565b60075481565b600061071561070e61173f565b8484611747565b6001905092915050565b6000600254905090565b6000610736848484611912565b6000600160008673ffffffffffffffffffffffffffffffffffffffff1673ffffffffffffffffffffffffffffffffffffffff168152602001908152602001600020600061078161173f565b73ffffffffffffffffffffffffffffffffffffffff1673ffffffffffffffffffffffffffffffffffffffff16815260200190815260200160002054905082811015610801576040517f08c379a00000000000000000000000000000000000000000000000000000000081526004016107f89061299e565b60405180910390fd5b6108158561080d61173f565b858403611747565b60019150509392505050565b600060066000838152602001908152602001600020600101549050919050565b61084961173f565b73ffffffffffffffffffffffffffffffffffffffff16610867610e51565b73ffffffffffffffffffffffffffffffffffffffff16146108bd576040517f08c379a00000000000000000000000000000000000000000000000000000000081526004016108b4906129be565b60405180910390fd5b7f000000000000000000000000000000000000000000000000000000000000000073ffffffffffffffffffffffffffffffffffffffff1663a9059cbb33836040518363ffffffff1660e01b815260040161091892919061283d565b602060405180830381600087803b15801561093257600080fd5b505af1158015610946573d6000803e3d6000fd5b505050506040513d601f19601f8201168201806040525081019061096a9190612391565b5050565b61097782610821565b6109888161098361173f565b611b93565b61099283836113b2565b505050565b61099f61173f565b73ffffffffffffffffffffffffffffffffffffffff166109bd610e51565b73ffffffffffffffffffffffffffffffffffffffff1614610a13576040517f08c379a0000000000000000000000000000000000000000000000000000000008152600401610a0a906129be565b60405180910390fd5b610a3d7f9f2df0fed2c77648de5860a4cc508cd0818c85b8b8a1ab4ceeef8d981c8956a68261120a565b50565b60006012905090565b610a5161173f565b73ffffffffffffffffffffffffffffffffffffffff168173ffffffffffffffffffffffffffffffffffffffff1614610abe576040517f08c379a0000000000000000000000000000000000000000000000000000000008152600401610ab590612a9e565b60405180910390fd5b610ac88282611c30565b5050565b6000610b6e610ad961173f565b848460016000610ae761173f565b73ffffffffffffffffffffffffffffffffffffffff1673ffffffffffffffffffffffffffffffffffffffff16815260200190815260200160002060008873ffffffffffffffffffffffffffffffffffffffff1673ffffffffffffffffffffffffffffffffffffffff16815260200190815260200160002054610b699190612b3b565b611747565b6001905092915050565b610ba27f9f2df0fed2c77648de5860a4cc508cd0818c85b8b8a1ab4ceeef8d981c8956a633610e7b565b610be1576040517f08c379a0000000000000000000000000000000000000000000000000000000008152600401610bd89061291e565b60405180910390fd5b6007547f000000000000000000000000000000000000000000000000000000000000000073ffffffffffffffffffffffffffffffffffffffff166370a08231306040518263ffffffff1660e01b8152600401610c3d9190612822565b60206040518083038186803b158015610c5557600080fd5b505afa158015610c69573d6000803e3d6000fd5b505050506040513d601f19601f82011682018060405250810190610c8d9190612471565b1015610cce576040517f08c379a0000000000000000000000000000000000000000000000000000000008152600401610cc590612a5e565b60405180910390fd5b610cd88282611d12565b5050565b610ce63382611e72565b50565b7f000000000000000000000000000000000000000000000000000000000000000073ffffffffffffffffffffffffffffffffffffffff163373ffffffffffffffffffffffffffffffffffffffff1614610d77576040517f08c379a0000000000000000000000000000000000000000000000000000000008152600401610d6e90612a3e565b60405180910390fd5b8060078190555050565b60008060008373ffffffffffffffffffffffffffffffffffffffff1673ffffffffffffffffffffffffffffffffffffffff168152602001908152602001600020549050919050565b610dd161173f565b73ffffffffffffffffffffffffffffffffffffffff16610def610e51565b73ffffffffffffffffffffffffffffffffffffffff1614610e45576040517f08c379a0000000000000000000000000000000000000000000000000000000008152600401610e3c906129be565b60405180910390fd5b610e4f6000612049565b565b6000600560009054906101000a900473ffffffffffffffffffffffffffffffffffffffff16905090565b60006006600084815260200190815260200160002060000160008373ffffffffffffffffffffffffffffffffffffffff1673ffffffffffffffffffffffffffffffffffffffff16815260200190815260200160002060009054906101000a900460ff16905092915050565b606060048054610ef590612d07565b80601f0160208091040260200160405190810160405280929190818152602001828054610f2190612d07565b8015610f6e5780601f10610f4357610100808354040283529160200191610f6e565b820191906000526020600020905b815481529060010190602001808311610f5157829003601f168201915b5050505050905090565b610f8061173f565b73ffffffffffffffffffffffffffffffffffffffff16610f9e610e51565b73ffffffffffffffffffffffffffffffffffffffff1614610ff4576040517f08c379a0000000000000000000000000000000000000000000000000000000008152600401610feb906129be565b60405180910390fd5b61101e7f9f2df0fed2c77648de5860a4cc508cd0818c85b8b8a1ab4ceeef8d981c8956a68261096e565b50565b6000801b81565b6000806001600061103761173f565b73ffffffffffffffffffffffffffffffffffffffff1673ffffffffffffffffffffffffffffffffffffffff16815260200190815260200160002060008573ffffffffffffffffffffffffffffffffffffffff1673ffffffffffffffffffffffffffffffffffffffff168152602001908152602001600020549050828110156110f4576040517f08c379a00000000000000000000000000000000000000000000000000000000081526004016110eb90612a7e565b60405180910390fd5b6111086110ff61173f565b85858403611747565b600191505092915050565b600061112761112061173f565b8484611912565b6001905092915050565b60006007547f000000000000000000000000000000000000000000000000000000000000000073ffffffffffffffffffffffffffffffffffffffff166370a08231306040518263ffffffff1660e01b815260040161118f9190612822565b60206040518083038186803b1580156111a757600080fd5b505afa1580156111bb573d6000803e3d6000fd5b505050506040513d601f19601f820116820180604052508101906111df9190612471565b1015905090565b7f9f2df0fed2c77648de5860a4cc508cd0818c85b8b8a1ab4ceeef8d981c8956a681565b61121382610821565b6112248161121f61173f565b611b93565b61122e838361210f565b505050565b6000600160008473ffffffffffffffffffffffffffffffffffffffff1673ffffffffffffffffffffffffffffffffffffffff16815260200190815260200160002060008373ffffffffffffffffffffffffffffffffffffffff1673ffffffffffffffffffffffffffffffffffffffff16815260200190815260200160002054905092915050565b6112c261173f565b73ffffffffffffffffffffffffffffffffffffffff166112e0610e51565b73ffffffffffffffffffffffffffffffffffffffff1614611336576040517f08c379a000000000000000000000000000000000000000000000000000000000815260040161132d906129be565b60405180910390fd5b600073ffffffffffffffffffffffffffffffffffffffff168173ffffffffffffffffffffffffffffffffffffffff1614156113a6576040517f08c379a000000000000000000000000000000000000000000000000000000000815260040161139d9061293e565b60405180910390fd5b6113af81612049565b50565b6113bb82610821565b6113cc816113c761173f565b611b93565b6113d68383612138565b505050565b6060600060028360026113ee9190612b91565b6113f89190612b3b565b67ffffffffffffffff811115611437577f4e487b7100000000000000000000000000000000000000000000000000000000600052604160045260246000fd5b6040519080825280601f01601f1916602001820160405280156114695781602001600182028036833780820191505090505b5090507f3000000000000000000000000000000000000000000000000000000000000000816000815181106114c7577f4e487b7100000000000000000000000000000000000000000000000000000000600052603260045260246000fd5b60200101907effffffffffffffffffffffffffffffffffffffffffffffffffffffffffffff1916908160001a9053507f780000000000000000000000000000000000000000000000000000000000000081600181518110611551577f4e487b7100000000000000000000000000000000000000000000000000000000600052603260045260246000fd5b60200101907effffffffffffffffffffffffffffffffffffffffffffffffffffffffffffff1916908160001a905350600060018460026115919190612b91565b61159b9190612b3b565b90505b6001811115611687577f3031323334353637383961626364656600000000000000000000000000000000600f861660108110611603577f4e487b7100000000000000000000000000000000000000000000000000000000600052603260045260246000fd5b1a60f81b828281518110611640577f4e487b7100000000000000000000000000000000000000000000000000000000600052603260045260246000fd5b60200101907effffffffffffffffffffffffffffffffffffffffffffffffffffffffffffff1916908160001a905350600485901c94508061168090612cdd565b905061159e565b50600084146116cb576040517f08c379a00000000000000000000000000000000000000000000000000000000081526004016116c2906128be565b60405180910390fd5b8091505092915050565b60007f01ffc9a7000000000000000000000000000000000000000000000000000000007bffffffffffffffffffffffffffffffffffffffffffffffffffffffff1916827bffffffffffffffffffffffffffffffffffffffffffffffffffffffff1916149050919050565b600033905090565b600073ffffffffffffffffffffffffffffffffffffffff168373ffffffffffffffffffffffffffffffffffffffff1614156117b7576040517f08c379a00000000000000000000000000000000000000000000000000000000081526004016117ae90612a1e565b60405180910390fd5b600073ffffffffffffffffffffffffffffffffffffffff168273ffffffffffffffffffffffffffffffffffffffff161415611827576040517f08c379a000000000000000000000000000000000000000000000000000000000815260040161181e9061295e565b60405180910390fd5b80600160008573ffffffffffffffffffffffffffffffffffffffff1673ffffffffffffffffffffffffffffffffffffffff16815260200190815260200160002060008473ffffffffffffffffffffffffffffffffffffffff1673ffffffffffffffffffffffffffffffffffffffff168152602001908152602001600020819055508173ffffffffffffffffffffffffffffffffffffffff168373ffffffffffffffffffffffffffffffffffffffff167f8c5be1e5ebec7d5bd14f71427d1e84f3dd0314c0f7b2291e5b200ac8c7c3b925836040516119059190612ade565b60405180910390a3505050565b600073ffffffffffffffffffffffffffffffffffffffff168373ffffffffffffffffffffffffffffffffffffffff161415611982576040517f08c379a0000000000000000000000000000000000000000000000000000000008152600401611979906129fe565b60405180910390fd5b600073ffffffffffffffffffffffffffffffffffffffff168273ffffffffffffffffffffffffffffffffffffffff1614156119f2576040517f08c379a00000000000000000000000000000000000000000000000000000000081526004016119e9906128de565b60405180910390fd5b6119fd838383612219565b60008060008573ffffffffffffffffffffffffffffffffffffffff1673ffffffffffffffffffffffffffffffffffffffff16815260200190815260200160002054905081811015611a83576040517f08c379a0000000000000000000000000000000000000000000000000000000008152600401611a7a9061297e565b60405180910390fd5b8181036000808673ffffffffffffffffffffffffffffffffffffffff1673ffffffffffffffffffffffffffffffffffffffff16815260200190815260200160002081905550816000808573ffffffffffffffffffffffffffffffffffffffff1673ffffffffffffffffffffffffffffffffffffffff1681526020019081526020016000206000828254611b169190612b3b565b925050819055508273ffffffffffffffffffffffffffffffffffffffff168473ffffffffffffffffffffffffffffffffffffffff167fddf252ad1be2c89b69c2b068fc378daa952ba7f163c4a11628f55a4df523b3ef84604051611b7a9190612ade565b60405180910390a3611b8d84848461221e565b50505050565b611b9d8282610e7b565b611c2c57611bc28173ffffffffffffffffffffffffffffffffffffffff1660146113db565b611bd08360001c60206113db565b604051602001611be19291906127e8565b6040516020818303038152906040526040517f08c379a0000000000000000000000000000000000000000000000000000000008152600401611c23919061289c565b60405180910390fd5b5050565b611c3a8282610e7b565b15611d0e5760006006600084815260200190815260200160002060000160008373ffffffffffffffffffffffffffffffffffffffff1673ffffffffffffffffffffffffffffffffffffffff16815260200190815260200160002060006101000a81548160ff021916908315150217905550611cb361173f565b73ffffffffffffffffffffffffffffffffffffffff168173ffffffffffffffffffffffffffffffffffffffff16837ff6391f5c32d9c69d2a47ea670b442974b53935d1edc7fd64eb21e047a839171b60405160405180910390a45b5050565b600073ffffffffffffffffffffffffffffffffffffffff168273ffffffffffffffffffffffffffffffffffffffff161415611d82576040517f08c379a0000000000000000000000000000000000000000000000000000000008152600401611d7990612abe565b60405180910390fd5b611d8e60008383612219565b8060026000828254611da09190612b3b565b92505081905550806000808473ffffffffffffffffffffffffffffffffffffffff1673ffffffffffffffffffffffffffffffffffffffff1681526020019081526020016000206000828254611df59190612b3b565b925050819055508173ffffffffffffffffffffffffffffffffffffffff16600073ffffffffffffffffffffffffffffffffffffffff167fddf252ad1be2c89b69c2b068fc378daa952ba7f163c4a11628f55a4df523b3ef83604051611e5a9190612ade565b60405180910390a3611e6e6000838361221e565b5050565b600073ffffffffffffffffffffffffffffffffffffffff168273ffffffffffffffffffffffffffffffffffffffff161415611ee2576040517f08c379a0000000000000000000000000000000000000000000000000000000008152600401611ed9906129de565b60405180910390fd5b611eee82600083612219565b60008060008473ffffffffffffffffffffffffffffffffffffffff1673ffffffffffffffffffffffffffffffffffffffff16815260200190815260200160002054905081811015611f74576040517f08c379a0000000000000000000000000000000000000000000000000000000008152600401611f6b906128fe565b60405180910390fd5b8181036000808573ffffffffffffffffffffffffffffffffffffffff1673ffffffffffffffffffffffffffffffffffffffff168152602001908152602001600020819055508160026000828254611fcb9190612beb565b92505081905550600073ffffffffffffffffffffffffffffffffffffffff168373ffffffffffffffffffffffffffffffffffffffff167fddf252ad1be2c89b69c2b068fc378daa952ba7f163c4a11628f55a4df523b3ef846040516120309190612ade565b60405180910390a36120448360008461221e565b505050565b6000600560009054906101000a900473ffffffffffffffffffffffffffffffffffffffff16905081600560006101000a81548173ffffffffffffffffffffffffffffffffffffffff021916908373ffffffffffffffffffffffffffffffffffffffff1602179055508173ffffffffffffffffffffffffffffffffffffffff168173ffffffffffffffffffffffffffffffffffffffff167f8be0079c531659141344cd1fd0a4f28419497f9722a3daafe3b4186f6b6457e060405160405180910390a35050565b61211882610821565b6121298161212461173f565b611b93565b6121338383611c30565b505050565b6121428282610e7b565b6122155760016006600084815260200190815260200160002060000160008373ffffffffffffffffffffffffffffffffffffffff1673ffffffffffffffffffffffffffffffffffffffff16815260200190815260200160002060006101000a81548160ff0219169083151502179055506121ba61173f565b73ffffffffffffffffffffffffffffffffffffffff168173ffffffffffffffffffffffffffffffffffffffff16837f2f8788117e7eff1d82e926ec794901d17c78024a50270940304540a733656f0d60405160405180910390a45b5050565b505050565b505050565b6000813590506122328161327b565b92915050565b60008151905061224781613292565b92915050565b60008135905061225c816132a9565b92915050565b600081359050612271816132c0565b92915050565b600081359050612286816132d7565b92915050565b60008151905061229b816132d7565b92915050565b6000602082840312156122b357600080fd5b60006122c184828501612223565b91505092915050565b600080604083850312156122dd57600080fd5b60006122eb85828601612223565b92505060206122fc85828601612223565b9150509250929050565b60008060006060848603121561231b57600080fd5b600061232986828701612223565b935050602061233a86828701612223565b925050604061234b86828701612277565b9150509250925092565b6000806040838503121561236857600080fd5b600061237685828601612223565b925050602061238785828601612277565b9150509250929050565b6000602082840312156123a357600080fd5b60006123b184828501612238565b91505092915050565b6000602082840312156123cc57600080fd5b60006123da8482850161224d565b91505092915050565b600080604083850312156123f657600080fd5b60006124048582860161224d565b925050602061241585828601612223565b9150509250929050565b60006020828403121561243157600080fd5b600061243f84828501612262565b91505092915050565b60006020828403121561245a57600080fd5b600061246884828501612277565b91505092915050565b60006020828403121561248357600080fd5b60006124918482850161228c565b91505092915050565b6124a381612c1f565b82525050565b6124b281612c31565b82525050565b6124c181612c3d565b82525050565b60006124d282612b14565b6124dc8185612b1f565b93506124ec818560208601612caa565b6124f581612d97565b840191505092915050565b600061250b82612b14565b6125158185612b30565b9350612525818560208601612caa565b80840191505092915050565b600061253e602083612b1f565b915061254982612da8565b602082019050919050565b6000612561602383612b1f565b915061256c82612dd1565b604082019050919050565b6000612584602283612b1f565b915061258f82612e20565b604082019050919050565b60006125a7601e83612b1f565b91506125b282612e6f565b602082019050919050565b60006125ca602683612b1f565b91506125d582612e98565b604082019050919050565b60006125ed602283612b1f565b91506125f882612ee7565b604082019050919050565b6000612610602683612b1f565b915061261b82612f36565b604082019050919050565b6000612633602883612b1f565b915061263e82612f85565b604082019050919050565b6000612656602083612b1f565b915061266182612fd4565b602082019050919050565b6000612679602183612b1f565b915061268482612ffd565b604082019050919050565b600061269c602583612b1f565b91506126a78261304c565b604082019050919050565b60006126bf602483612b1f565b91506126ca8261309b565b604082019050919050565b60006126e2602d83612b1f565b91506126ed826130ea565b604082019050919050565b6000612705601783612b30565b915061271082613139565b601782019050919050565b6000612728601e83612b1f565b915061273382613162565b602082019050919050565b600061274b602583612b1f565b91506127568261318b565b604082019050919050565b600061276e601183612b30565b9150612779826131da565b601182019050919050565b6000612791602f83612b1f565b915061279c82613203565b604082019050919050565b60006127b4601f83612b1f565b91506127bf82613252565b602082019050919050565b6127d381612c93565b82525050565b6127e281612c9d565b82525050565b60006127f3826126f8565b91506127ff8285612500565b915061280a82612761565b91506128168284612500565b91508190509392505050565b6000602082019050612837600083018461249a565b92915050565b6000604082019050612852600083018561249a565b61285f60208301846127ca565b9392505050565b600060208201905061287b60008301846124a9565b92915050565b600060208201905061289660008301846124b8565b92915050565b600060208201905081810360008301526128b681846124c7565b905092915050565b600060208201905081810360008301526128d781612531565b9050919050565b600060208201905081810360008301526128f781612554565b9050919050565b6000602082019050818103600083015261291781612577565b9050919050565b600060208201905081810360008301526129378161259a565b9050919050565b60006020820190508181036000830152612957816125bd565b9050919050565b60006020820190508181036000830152612977816125e0565b9050919050565b6000602082019050818103600083015261299781612603565b9050919050565b600060208201905081810360008301526129b781612626565b9050919050565b600060208201905081810360008301526129d781612649565b9050919050565b600060208201905081810360008301526129f78161266c565b9050919050565b60006020820190508181036000830152612a178161268f565b9050919050565b60006020820190508181036000830152612a37816126b2565b9050919050565b60006020820190508181036000830152612a57816126d5565b9050919050565b60006020820190508181036000830152612a778161271b565b9050919050565b60006020820190508181036000830152612a978161273e565b9050919050565b60006020820190508181036000830152612ab781612784565b9050919050565b60006020820190508181036000830152612ad7816127a7565b9050919050565b6000602082019050612af360008301846127ca565b92915050565b6000602082019050612b0e60008301846127d9565b92915050565b600081519050919050565b600082825260208201905092915050565b600081905092915050565b6000612b4682612c93565b9150612b5183612c93565b9250827fffffffffffffffffffffffffffffffffffffffffffffffffffffffffffffffff03821115612b8657612b85612d39565b5b828201905092915050565b6000612b9c82612c93565b9150612ba783612c93565b9250817fffffffffffffffffffffffffffffffffffffffffffffffffffffffffffffffff0483118215151615612be057612bdf612d39565b5b828202905092915050565b6000612bf682612c93565b9150612c0183612c93565b925082821015612c1457612c13612d39565b5b828203905092915050565b6000612c2a82612c73565b9050919050565b60008115159050919050565b6000819050919050565b60007fffffffff0000000000000000000000000000000000000000000000000000000082169050919050565b600073ffffffffffffffffffffffffffffffffffffffff82169050919050565b6000819050919050565b600060ff82169050919050565b60005b83811015612cc8578082015181840152602081019050612cad565b83811115612cd7576000848401525b50505050565b6000612ce882612c93565b91506000821415612cfc57612cfb612d39565b5b600182039050919050565b60006002820490506001821680612d1f57607f821691505b60208210811415612d3357612d32612d68565b5b50919050565b7f4e487b7100000000000000000000000000000000000000000000000000000000600052601160045260246000fd5b7f4e487b7100000000000000000000000000000000000000000000000000000000600052602260045260246000fd5b6000601f19601f8301169050919050565b7f537472696e67733a20686578206c656e67746820696e73756666696369656e74600082015250565b7f45524332303a207472616e7366657220746f20746865207a65726f206164647260008201527f6573730000000000000000000000000000000000000000000000000000000000602082015250565b7f45524332303a206275726e20616d6f756e7420657863656564732062616c616e60008201527f6365000000000000000000000000000000000000000000000000000000000000602082015250565b7f61646472657373206973206d697373696e67204d494e5445525f524f4c450000600082015250565b7f4f776e61626c653a206e6577206f776e657220697320746865207a65726f206160008201527f6464726573730000000000000000000000000000000000000000000000000000602082015250565b7f45524332303a20617070726f766520746f20746865207a65726f20616464726560008201527f7373000000000000000000000000000000000000000000000000000000000000602082015250565b7f45524332303a207472616e7366657220616d6f756e742065786365656473206260008201527f616c616e63650000000000000000000000000000000000000000000000000000602082015250565b7f45524332303a207472616e7366657220616d6f756e742065786365656473206160008201527f6c6c6f77616e6365000000000000000000000000000000000000000000000000602082015250565b7f4f776e61626c653a2063616c6c6572206973206e6f7420746865206f776e6572600082015250565b7f45524332303a206275726e2066726f6d20746865207a65726f2061646472657360008201527f7300000000000000000000000000000000000000000000000000000000000000602082015250565b7f45524332303a207472616e736665722066726f6d20746865207a65726f20616460008201527f6472657373000000000000000000000000000000000000000000000000000000602082015250565b7f45524332303a20617070726f76652066726f6d20746865207a65726f2061646460008201527f7265737300000000000000000000000000000000000000000000000000000000602082015250565b7f6f6e6c792073757065726c6f79616c2063616e206368616e676520746865207260008201527f65717569726564207374616b6500000000000000000000000000000000000000602082015250565b7f416363657373436f6e74726f6c3a206163636f756e7420000000000000000000600082015250565b7f696e73756666696369656e74207374616b6520666f72206d696e74696e670000600082015250565b7f45524332303a2064656372656173656420616c6c6f77616e63652062656c6f7760008201527f207a65726f000000000000000000000000000000000000000000000000000000602082015250565b7f206973206d697373696e6720726f6c6520000000000000000000000000000000600082015250565b7f416363657373436f6e74726f6c3a2063616e206f6e6c792072656e6f756e636560008201527f20726f6c657320666f722073656c660000000000000000000000000000000000602082015250565b7f45524332303a206d696e7420746f20746865207a65726f206164647265737300600082015250565b61328481612c1f565b811461328f57600080fd5b50565b61329b81612c31565b81146132a657600080fd5b50565b6132b281612c3d565b81146132bd57600080fd5b50565b6132c981612c47565b81146132d457600080fd5b50565b6132e081612c93565b81146132eb57600080fd5b5056fea2646970667358221220db0929aa5baccc1b8c6da72230a0705f89462b83ddc6b1ec13712690cd17c56564736f6c63430008040033",
  "devdoc": {
    "kind": "dev",
    "methods": {
      "allowance(address,address)": {
        "details": "See {IERC20-allowance}."
      },
      "approve(address,uint256)": {
        "details": "See {IERC20-approve}. Requirements: - `spender` cannot be the zero address."
      },
      "balanceOf(address)": {
        "details": "See {IERC20-balanceOf}."
      },
      "burn(uint256)": {
        "details": "burns token of specified amount from msg.sender",
        "params": {
          "amount": "to burn"
        }
      },
      "decimals()": {
        "details": "Returns the number of decimals used to get its user representation. For example, if `decimals` equals `2`, a balance of `505` tokens should be displayed to a user as `5.05` (`505 / 10 ** 2`). Tokens usually opt for a value of 18, imitating the relationship between Ether and Wei. This is the value {ERC20} uses, unless this function is overridden; NOTE: This information is only used for _display_ purposes: it in no way affects any of the arithmetic of the contract, including {IERC20-balanceOf} and {IERC20-transfer}."
      },
      "decreaseAllowance(address,uint256)": {
        "details": "Atomically decreases the allowance granted to `spender` by the caller. This is an alternative to {approve} that can be used as a mitigation for problems described in {IERC20-approve}. Emits an {Approval} event indicating the updated allowance. Requirements: - `spender` cannot be the zero address. - `spender` must have allowance for the caller of at least `subtractedValue`."
      },
      "getRoleAdmin(bytes32)": {
        "details": "Returns the admin role that controls `role`. See {grantRole} and {revokeRole}. To change a role's admin, use {_setRoleAdmin}."
      },
      "grantRole(bytes32,address)": {
        "details": "Grants `role` to `account`. If `account` had not been already granted `role`, emits a {RoleGranted} event. Requirements: - the caller must have ``role``'s admin role."
      },
      "hasRole(bytes32,address)": {
        "details": "Returns `true` if `account` has been granted `role`."
      },
      "increaseAllowance(address,uint256)": {
        "details": "Atomically increases the allowance granted to `spender` by the caller. This is an alternative to {approve} that can be used as a mitigation for problems described in {IERC20-approve}. Emits an {Approval} event indicating the updated allowance. Requirements: - `spender` cannot be the zero address."
      },
      "mint(address,uint256)": {
        "details": "mints tokens to the recipient, to be called from owner",
        "params": {
          "amount": "amount to be minted",
          "recipient": "address to mint"
        }
      },
      "name()": {
        "details": "Returns the name of the token."
      },
      "owner()": {
        "details": "Returns the address of the current owner."
      },
      "renounceOwnership()": {
        "details": "Leaves the contract without owner. It will not be possible to call `onlyOwner` functions anymore. Can only be called by the current owner. NOTE: Renouncing ownership will leave the contract without an owner, thereby removing any functionality that is only available to the owner."
      },
      "renounceRole(bytes32,address)": {
        "details": "Revokes `role` from the calling account. Roles are often managed via {grantRole} and {revokeRole}: this function's purpose is to provide a mechanism for accounts to lose their privileges if they are compromised (such as when a trusted device is misplaced). If the calling account had been granted `role`, emits a {RoleRevoked} event. Requirements: - the caller must be `account`."
      },
      "revokeRole(bytes32,address)": {
        "details": "Revokes `role` from `account`. If `account` had been granted `role`, emits a {RoleRevoked} event. Requirements: - the caller must have ``role``'s admin role."
      },
      "supportsInterface(bytes4)": {
        "details": "See {IERC165-supportsInterface}."
      },
      "symbol()": {
        "details": "Returns the symbol of the token, usually a shorter version of the name."
      },
      "totalSupply()": {
        "details": "See {IERC20-totalSupply}."
      },
      "transfer(address,uint256)": {
        "details": "See {IERC20-transfer}. Requirements: - `recipient` cannot be the zero address. - the caller must have a balance of at least `amount`."
      },
      "transferFrom(address,address,uint256)": {
        "details": "See {IERC20-transferFrom}. Emits an {Approval} event indicating the updated allowance. This is not required by the EIP. See the note at the beginning of {ERC20}. Requirements: - `sender` and `recipient` cannot be the zero address. - `sender` must have a balance of at least `amount`. - the caller must have allowance for ``sender``'s tokens of at least `amount`."
      },
      "transferOwnership(address)": {
        "details": "Transfers ownership of the contract to a new account (`newOwner`). Can only be called by the current owner."
      }
    },
    "title": "implements minting/burning functionality for owner",
    "version": 1
  },
  "userdoc": {
    "kind": "user",
    "methods": {},
    "version": 1
  },
  "storageLayout": {
    "storage": [
      {
        "astId": 499,
        "contract": "contracts/staking-mintable-token.sol:StakingMintableToken",
        "label": "_balances",
        "offset": 0,
        "slot": "0",
        "type": "t_mapping(t_address,t_uint256)"
      },
      {
        "astId": 505,
        "contract": "contracts/staking-mintable-token.sol:StakingMintableToken",
        "label": "_allowances",
        "offset": 0,
        "slot": "1",
        "type": "t_mapping(t_address,t_mapping(t_address,t_uint256))"
      },
      {
        "astId": 507,
        "contract": "contracts/staking-mintable-token.sol:StakingMintableToken",
        "label": "_totalSupply",
        "offset": 0,
        "slot": "2",
        "type": "t_uint256"
      },
      {
        "astId": 509,
        "contract": "contracts/staking-mintable-token.sol:StakingMintableToken",
        "label": "_name",
        "offset": 0,
        "slot": "3",
        "type": "t_string_storage"
      },
      {
        "astId": 511,
        "contract": "contracts/staking-mintable-token.sol:StakingMintableToken",
        "label": "_symbol",
        "offset": 0,
        "slot": "4",
        "type": "t_string_storage"
      },
      {
        "astId": 387,
        "contract": "contracts/staking-mintable-token.sol:StakingMintableToken",
        "label": "_owner",
        "offset": 0,
        "slot": "5",
        "type": "t_address"
      },
      {
        "astId": 24,
        "contract": "contracts/staking-mintable-token.sol:StakingMintableToken",
        "label": "_roles",
        "offset": 0,
        "slot": "6",
        "type": "t_mapping(t_bytes32,t_struct(RoleData)19_storage)"
      },
      {
        "astId": 1412,
        "contract": "contracts/staking-mintable-token.sol:StakingMintableToken",
        "label": "requiredBalance",
        "offset": 0,
        "slot": "7",
        "type": "t_uint256"
      }
    ],
    "types": {
      "t_address": {
        "encoding": "inplace",
        "label": "address",
        "numberOfBytes": "20"
      },
      "t_bool": {
        "encoding": "inplace",
        "label": "bool",
        "numberOfBytes": "1"
      },
      "t_bytes32": {
        "encoding": "inplace",
        "label": "bytes32",
        "numberOfBytes": "32"
      },
      "t_mapping(t_address,t_bool)": {
        "encoding": "mapping",
        "key": "t_address",
        "label": "mapping(address => bool)",
        "numberOfBytes": "32",
        "value": "t_bool"
      },
      "t_mapping(t_address,t_mapping(t_address,t_uint256))": {
        "encoding": "mapping",
        "key": "t_address",
        "label": "mapping(address => mapping(address => uint256))",
        "numberOfBytes": "32",
        "value": "t_mapping(t_address,t_uint256)"
      },
      "t_mapping(t_address,t_uint256)": {
        "encoding": "mapping",
        "key": "t_address",
        "label": "mapping(address => uint256)",
        "numberOfBytes": "32",
        "value": "t_uint256"
      },
      "t_mapping(t_bytes32,t_struct(RoleData)19_storage)": {
        "encoding": "mapping",
        "key": "t_bytes32",
        "label": "mapping(bytes32 => struct AccessControl.RoleData)",
        "numberOfBytes": "32",
        "value": "t_struct(RoleData)19_storage"
      },
      "t_string_storage": {
        "encoding": "bytes",
        "label": "string",
        "numberOfBytes": "32"
      },
      "t_struct(RoleData)19_storage": {
        "encoding": "inplace",
        "label": "struct AccessControl.RoleData",
        "members": [
          {
            "astId": 16,
            "contract": "contracts/staking-mintable-token.sol:StakingMintableToken",
            "label": "members",
            "offset": 0,
            "slot": "0",
            "type": "t_mapping(t_address,t_bool)"
          },
          {
            "astId": 18,
            "contract": "contracts/staking-mintable-token.sol:StakingMintableToken",
            "label": "adminRole",
            "offset": 0,
            "slot": "1",
            "type": "t_bytes32"
          }
        ],
        "numberOfBytes": "64"
      },
      "t_uint256": {
        "encoding": "inplace",
        "label": "uint256",
        "numberOfBytes": "32"
      }
    }
  }
}